{
  "_format": "hh-sol-artifact-1",
  "contractName": "InvoiceNFT",
  "sourceName": "contracts/InvoiceNFT.sol",
  "abi": [
    {
      "inputs": [
        {
          "internalType": "address",
          "name": "_admin",
          "type": "address"
        },
        {
          "internalType": "address",
          "name": "_minter",
          "type": "address"
        }
      ],
      "stateMutability": "nonpayable",
      "type": "constructor"
    },
    {
      "anonymous": false,
      "inputs": [
        {
          "indexed": true,
          "internalType": "address",
          "name": "owner",
          "type": "address"
        },
        {
          "indexed": true,
          "internalType": "address",
          "name": "approved",
          "type": "address"
        },
        {
          "indexed": true,
          "internalType": "uint256",
          "name": "tokenId",
          "type": "uint256"
        }
      ],
      "name": "Approval",
      "type": "event"
    },
    {
      "anonymous": false,
      "inputs": [
        {
          "indexed": true,
          "internalType": "address",
          "name": "owner",
          "type": "address"
        },
        {
          "indexed": true,
          "internalType": "address",
          "name": "operator",
          "type": "address"
        },
        {
          "indexed": false,
          "internalType": "bool",
          "name": "approved",
          "type": "bool"
        }
      ],
      "name": "ApprovalForAll",
      "type": "event"
    },
    {
      "anonymous": false,
      "inputs": [
        {
          "indexed": false,
          "internalType": "uint256",
          "name": "_fromTokenId",
          "type": "uint256"
        },
        {
          "indexed": false,
          "internalType": "uint256",
          "name": "_toTokenId",
          "type": "uint256"
        }
      ],
      "name": "BatchMetadataUpdate",
      "type": "event"
    },
    {
      "anonymous": false,
      "inputs": [
        {
          "indexed": true,
          "internalType": "uint256",
          "name": "tokenId",
          "type": "uint256"
        },
        {
          "indexed": true,
          "internalType": "bytes32",
          "name": "invoiceHash",
          "type": "bytes32"
        },
        {
          "indexed": true,
          "internalType": "address",
          "name": "freelancer",
          "type": "address"
        },
        {
          "indexed": false,
          "internalType": "address",
          "name": "employer",
          "type": "address"
        }
      ],
      "name": "InvoiceNFTMinted",
      "type": "event"
    },
    {
      "anonymous": false,
      "inputs": [
        {
          "indexed": false,
          "internalType": "uint256",
          "name": "_tokenId",
          "type": "uint256"
        }
      ],
      "name": "MetadataUpdate",
      "type": "event"
    },
    {
      "anonymous": false,
      "inputs": [
        {
          "indexed": false,
          "internalType": "address",
          "name": "account",
          "type": "address"
        }
      ],
      "name": "Paused",
      "type": "event"
    },
    {
      "anonymous": false,
      "inputs": [
        {
          "indexed": true,
          "internalType": "bytes32",
          "name": "role",
          "type": "bytes32"
        },
        {
          "indexed": true,
          "internalType": "bytes32",
          "name": "previousAdminRole",
          "type": "bytes32"
        },
        {
          "indexed": true,
          "internalType": "bytes32",
          "name": "newAdminRole",
          "type": "bytes32"
        }
      ],
      "name": "RoleAdminChanged",
      "type": "event"
    },
    {
      "anonymous": false,
      "inputs": [
        {
          "indexed": true,
          "internalType": "bytes32",
          "name": "role",
          "type": "bytes32"
        },
        {
          "indexed": true,
          "internalType": "address",
          "name": "account",
          "type": "address"
        },
        {
          "indexed": true,
          "internalType": "address",
          "name": "sender",
          "type": "address"
        }
      ],
      "name": "RoleGranted",
      "type": "event"
    },
    {
      "anonymous": false,
      "inputs": [
        {
          "indexed": true,
          "internalType": "bytes32",
          "name": "role",
          "type": "bytes32"
        },
        {
          "indexed": true,
          "internalType": "address",
          "name": "account",
          "type": "address"
        },
        {
          "indexed": true,
          "internalType": "address",
          "name": "sender",
          "type": "address"
        }
      ],
      "name": "RoleRevoked",
      "type": "event"
    },
    {
      "anonymous": false,
      "inputs": [
        {
          "indexed": true,
          "internalType": "address",
          "name": "from",
          "type": "address"
        },
        {
          "indexed": true,
          "internalType": "address",
          "name": "to",
          "type": "address"
        },
        {
          "indexed": true,
          "internalType": "uint256",
          "name": "tokenId",
          "type": "uint256"
        }
      ],
      "name": "Transfer",
      "type": "event"
    },
    {
      "anonymous": false,
      "inputs": [
        {
          "indexed": false,
          "internalType": "address",
          "name": "account",
          "type": "address"
        }
      ],
      "name": "Unpaused",
      "type": "event"
    },
    {
      "inputs": [],
      "name": "ADMIN_ROLE",
      "outputs": [
        {
          "internalType": "bytes32",
          "name": "",
          "type": "bytes32"
        }
      ],
      "stateMutability": "view",
      "type": "function"
    },
    {
      "inputs": [],
      "name": "DEFAULT_ADMIN_ROLE",
      "outputs": [
        {
          "internalType": "bytes32",
          "name": "",
          "type": "bytes32"
        }
      ],
      "stateMutability": "view",
      "type": "function"
    },
    {
      "inputs": [],
      "name": "MINTER_ROLE",
      "outputs": [
        {
          "internalType": "bytes32",
          "name": "",
          "type": "bytes32"
        }
      ],
      "stateMutability": "view",
      "type": "function"
    },
    {
      "inputs": [
        {
          "internalType": "address",
          "name": "to",
          "type": "address"
        },
        {
          "internalType": "uint256",
          "name": "tokenId",
          "type": "uint256"
        }
      ],
      "name": "approve",
      "outputs": [],
      "stateMutability": "nonpayable",
      "type": "function"
    },
    {
      "inputs": [
        {
          "internalType": "address",
          "name": "owner",
          "type": "address"
        }
      ],
      "name": "balanceOf",
      "outputs": [
        {
          "internalType": "uint256",
          "name": "",
          "type": "uint256"
        }
      ],
      "stateMutability": "view",
      "type": "function"
    },
    {
      "inputs": [
        {
          "internalType": "uint256",
          "name": "tokenId",
          "type": "uint256"
        }
      ],
      "name": "getApproved",
      "outputs": [
        {
          "internalType": "address",
          "name": "",
          "type": "address"
        }
      ],
      "stateMutability": "view",
      "type": "function"
    },
    {
      "inputs": [
        {
          "internalType": "uint256",
          "name": "tokenId",
          "type": "uint256"
        }
      ],
      "name": "getInvoiceMetadata",
      "outputs": [
        {
          "components": [
            {
              "internalType": "bytes32",
              "name": "invoiceHash",
              "type": "bytes32"
            },
            {
              "internalType": "address",
              "name": "freelancer",
              "type": "address"
            },
            {
              "internalType": "address",
              "name": "employer",
              "type": "address"
            },
            {
              "internalType": "uint256",
              "name": "amount",
              "type": "uint256"
            },
            {
              "internalType": "address",
              "name": "token",
              "type": "address"
            },
            {
              "internalType": "string",
              "name": "description",
              "type": "string"
            },
            {
              "internalType": "uint256",
              "name": "createdAt",
              "type": "uint256"
            },
            {
              "internalType": "bool",
              "name": "isPaid",
              "type": "bool"
            }
          ],
          "internalType": "struct InvoiceNFT.InvoiceMetadata",
          "name": "",
          "type": "tuple"
        }
      ],
      "stateMutability": "view",
      "type": "function"
    },
    {
      "inputs": [
        {
          "internalType": "bytes32",
          "name": "role",
          "type": "bytes32"
        }
      ],
      "name": "getRoleAdmin",
      "outputs": [
        {
          "internalType": "bytes32",
          "name": "",
          "type": "bytes32"
        }
      ],
      "stateMutability": "view",
      "type": "function"
    },
    {
      "inputs": [
        {
          "internalType": "bytes32",
          "name": "role",
          "type": "bytes32"
        },
        {
          "internalType": "address",
          "name": "account",
          "type": "address"
        }
      ],
      "name": "grantRole",
      "outputs": [],
      "stateMutability": "nonpayable",
      "type": "function"
    },
    {
      "inputs": [
        {
          "internalType": "bytes32",
          "name": "role",
          "type": "bytes32"
        },
        {
          "internalType": "address",
          "name": "account",
          "type": "address"
        }
      ],
      "name": "hasRole",
      "outputs": [
        {
          "internalType": "bool",
          "name": "",
          "type": "bool"
        }
      ],
      "stateMutability": "view",
      "type": "function"
    },
    {
      "inputs": [
        {
          "internalType": "bytes32",
          "name": "",
          "type": "bytes32"
        }
      ],
      "name": "invoiceHashToToken",
      "outputs": [
        {
          "internalType": "uint256",
          "name": "",
          "type": "uint256"
        }
      ],
      "stateMutability": "view",
      "type": "function"
    },
    {
      "inputs": [
        {
          "internalType": "uint256",
          "name": "",
          "type": "uint256"
        }
      ],
      "name": "invoiceMetadata",
      "outputs": [
        {
          "internalType": "bytes32",
          "name": "invoiceHash",
          "type": "bytes32"
        },
        {
          "internalType": "address",
          "name": "freelancer",
          "type": "address"
        },
        {
          "internalType": "address",
          "name": "employer",
          "type": "address"
        },
        {
          "internalType": "uint256",
          "name": "amount",
          "type": "uint256"
        },
        {
          "internalType": "address",
          "name": "token",
          "type": "address"
        },
        {
          "internalType": "string",
          "name": "description",
          "type": "string"
        },
        {
          "internalType": "uint256",
          "name": "createdAt",
          "type": "uint256"
        },
        {
          "internalType": "bool",
          "name": "isPaid",
          "type": "bool"
        }
      ],
      "stateMutability": "view",
      "type": "function"
    },
    {
      "inputs": [
        {
          "internalType": "address",
          "name": "owner",
          "type": "address"
        },
        {
          "internalType": "address",
          "name": "operator",
          "type": "address"
        }
      ],
      "name": "isApprovedForAll",
      "outputs": [
        {
          "internalType": "bool",
          "name": "",
          "type": "bool"
        }
      ],
      "stateMutability": "view",
      "type": "function"
    },
    {
      "inputs": [
        {
          "internalType": "address",
          "name": "to",
          "type": "address"
        },
        {
          "internalType": "bytes32",
          "name": "invoiceHash",
          "type": "bytes32"
        },
        {
          "internalType": "address",
          "name": "employer",
          "type": "address"
        },
        {
          "internalType": "uint256",
          "name": "amount",
          "type": "uint256"
        },
        {
          "internalType": "address",
          "name": "token",
          "type": "address"
        },
        {
          "internalType": "string",
          "name": "description",
          "type": "string"
        },
        {
          "internalType": "string",
          "name": "uri",
          "type": "string"
        }
      ],
      "name": "mintInvoiceNFT",
      "outputs": [
        {
          "internalType": "uint256",
          "name": "",
          "type": "uint256"
        }
      ],
      "stateMutability": "nonpayable",
      "type": "function"
    },
    {
      "inputs": [],
      "name": "name",
      "outputs": [
        {
          "internalType": "string",
          "name": "",
          "type": "string"
        }
      ],
      "stateMutability": "view",
      "type": "function"
    },
    {
      "inputs": [
        {
          "internalType": "uint256",
          "name": "tokenId",
          "type": "uint256"
        }
      ],
      "name": "ownerOf",
      "outputs": [
        {
          "internalType": "address",
          "name": "",
          "type": "address"
        }
      ],
      "stateMutability": "view",
      "type": "function"
    },
    {
      "inputs": [],
      "name": "pause",
      "outputs": [],
      "stateMutability": "nonpayable",
      "type": "function"
    },
    {
      "inputs": [],
      "name": "paused",
      "outputs": [
        {
          "internalType": "bool",
          "name": "",
          "type": "bool"
        }
      ],
      "stateMutability": "view",
      "type": "function"
    },
    {
      "inputs": [
        {
          "internalType": "bytes32",
          "name": "role",
          "type": "bytes32"
        },
        {
          "internalType": "address",
          "name": "account",
          "type": "address"
        }
      ],
      "name": "renounceRole",
      "outputs": [],
      "stateMutability": "nonpayable",
      "type": "function"
    },
    {
      "inputs": [
        {
          "internalType": "bytes32",
          "name": "role",
          "type": "bytes32"
        },
        {
          "internalType": "address",
          "name": "account",
          "type": "address"
        }
      ],
      "name": "revokeRole",
      "outputs": [],
      "stateMutability": "nonpayable",
      "type": "function"
    },
    {
      "inputs": [
        {
          "internalType": "address",
          "name": "from",
          "type": "address"
        },
        {
          "internalType": "address",
          "name": "to",
          "type": "address"
        },
        {
          "internalType": "uint256",
          "name": "tokenId",
          "type": "uint256"
        }
      ],
      "name": "safeTransferFrom",
      "outputs": [],
      "stateMutability": "nonpayable",
      "type": "function"
    },
    {
      "inputs": [
        {
          "internalType": "address",
          "name": "from",
          "type": "address"
        },
        {
          "internalType": "address",
          "name": "to",
          "type": "address"
        },
        {
          "internalType": "uint256",
          "name": "tokenId",
          "type": "uint256"
        },
        {
          "internalType": "bytes",
          "name": "data",
          "type": "bytes"
        }
      ],
      "name": "safeTransferFrom",
      "outputs": [],
      "stateMutability": "nonpayable",
      "type": "function"
    },
    {
      "inputs": [
        {
          "internalType": "address",
          "name": "operator",
          "type": "address"
        },
        {
          "internalType": "bool",
          "name": "approved",
          "type": "bool"
        }
      ],
      "name": "setApprovalForAll",
      "outputs": [],
      "stateMutability": "nonpayable",
      "type": "function"
    },
    {
      "inputs": [
        {
          "internalType": "bytes4",
          "name": "interfaceId",
          "type": "bytes4"
        }
      ],
      "name": "supportsInterface",
      "outputs": [
        {
          "internalType": "bool",
          "name": "",
          "type": "bool"
        }
      ],
      "stateMutability": "view",
      "type": "function"
    },
    {
      "inputs": [],
      "name": "symbol",
      "outputs": [
        {
          "internalType": "string",
          "name": "",
          "type": "string"
        }
      ],
      "stateMutability": "view",
      "type": "function"
    },
    {
      "inputs": [
        {
          "internalType": "uint256",
          "name": "",
          "type": "uint256"
        }
      ],
      "name": "tokenToInvoiceHash",
      "outputs": [
        {
          "internalType": "bytes32",
          "name": "",
          "type": "bytes32"
        }
      ],
      "stateMutability": "view",
      "type": "function"
    },
    {
      "inputs": [
        {
          "internalType": "uint256",
          "name": "tokenId",
          "type": "uint256"
        }
      ],
      "name": "tokenURI",
      "outputs": [
        {
          "internalType": "string",
          "name": "",
          "type": "string"
        }
      ],
      "stateMutability": "view",
      "type": "function"
    },
    {
      "inputs": [
        {
          "internalType": "address",
          "name": "from",
          "type": "address"
        },
        {
          "internalType": "address",
          "name": "to",
          "type": "address"
        },
        {
          "internalType": "uint256",
          "name": "tokenId",
          "type": "uint256"
        }
      ],
      "name": "transferFrom",
      "outputs": [],
      "stateMutability": "nonpayable",
      "type": "function"
    },
    {
      "inputs": [],
      "name": "unpause",
      "outputs": [],
      "stateMutability": "nonpayable",
      "type": "function"
    },
    {
      "inputs": [
        {
          "internalType": "uint256",
          "name": "tokenId",
          "type": "uint256"
        },
        {
          "internalType": "bool",
          "name": "isPaid",
          "type": "bool"
        }
      ],
      "name": "updatePaymentStatus",
      "outputs": [],
      "stateMutability": "nonpayable",
      "type": "function"
    }
  ],
  "bytecode": "0x60806040523480156200001157600080fd5b5060405162002a6c38038062002a6c8339810160408190526200003491620001da565b60405180604001604052806011815260200170125b9d9bde48125b9d9bda58d948139195607a1b81525060405180604001604052806007815260200166494e564f49434560c81b81525081600090816200008f9190620002b7565b5060016200009e8282620002b7565b50506008805460ff1916905550620000b860008362000118565b620000e47fa49807205ce4d355092ef5a8a18f56e8913cf4a201fbe287825b095693c217758362000118565b620001107f9f2df0fed2c77648de5860a4cc508cd0818c85b8b8a1ab4ceeef8d981c8956a68262000118565b505062000383565b60008281526007602090815260408083206001600160a01b038516845290915290205460ff16620001b95760008281526007602090815260408083206001600160a01b03851684529091529020805460ff19166001179055620001783390565b6001600160a01b0316816001600160a01b0316837f2f8788117e7eff1d82e926ec794901d17c78024a50270940304540a733656f0d60405160405180910390a45b5050565b80516001600160a01b0381168114620001d557600080fd5b919050565b60008060408385031215620001ee57600080fd5b620001f983620001bd565b91506200020960208401620001bd565b90509250929050565b634e487b7160e01b600052604160045260246000fd5b600181811c908216806200023d57607f821691505b6020821081036200025e57634e487b7160e01b600052602260045260246000fd5b50919050565b601f821115620002b257600081815260208120601f850160051c810160208610156200028d5750805b601f850160051c820191505b81811015620002ae5782815560010162000299565b5050505b505050565b81516001600160401b03811115620002d357620002d362000212565b620002eb81620002e4845462000228565b8462000264565b602080601f8311600181146200032357600084156200030a5750858301515b600019600386901b1c1916600185901b178555620002ae565b600085815260208120601f198616915b82811015620003545788860151825594840194600190910190840162000333565b5085821015620003735787850151600019600388901b60f8161c191681555b5050505050600190811b01905550565b6126d980620003936000396000f3fe608060405234801561001057600080fd5b50600436106101da5760003560e01c806375b238fc11610104578063b88d4fde116100a2578063d355a14011610071578063d355a14014610423578063d53913931461044a578063d547741f14610471578063e985e9c51461048457600080fd5b8063b88d4fde146103ca578063bc9a310e146103dd578063bf1acad3146103fd578063c87b56dd1461041057600080fd5b806393f6eb6a116100de57806393f6eb6a1461038757806395d89b41146103a7578063a217fddf146103af578063a22cb465146103b757600080fd5b806375b238fc146103455780638456cb591461036c57806391d148541461037457600080fd5b80632a9e9d5e1161017c57806342842e0e1161014b57806342842e0e146103015780635c975abb146103145780636352211e1461031f57806370a082311461033257600080fd5b80632a9e9d5e146102b35780632f2ff15d146102d357806336568abe146102e65780633f4ba83a146102f957600080fd5b8063095ea7b3116101b8578063095ea7b314610247578063136fea361461025c57806323b872dd1461027d578063248a9ca31461029057600080fd5b806301ffc9a7146101df57806306fdde0314610207578063081812fc1461021c575b600080fd5b6101f26101ed366004611e5b565b6104c0565b60405190151581526020015b60405180910390f35b61020f6104d1565b6040516101fe9190611ec8565b61022f61022a366004611edb565b610563565b6040516001600160a01b0390911681526020016101fe565b61025a610255366004611f10565b61058a565b005b61026f61026a366004611fe6565b6106a4565b6040519081526020016101fe565b61025a61028b36600461208f565b610948565b61026f61029e366004611edb565b60009081526007602052604090206001015490565b61026f6102c1366004611edb565b600a6020526000908152604090205481565b61025a6102e13660046120cb565b610979565b61025a6102f43660046120cb565b61099e565b61025a610a1c565b61025a61030f36600461208f565b610a51565b60085460ff166101f2565b61022f61032d366004611edb565b610a6c565b61026f6103403660046120f7565b610acc565b61026f7fa49807205ce4d355092ef5a8a18f56e8913cf4a201fbe287825b095693c2177581565b61025a610b52565b6101f26103823660046120cb565b610b84565b61026f610395366004611edb565b600b6020526000908152604090205481565b61020f610baf565b61026f600081565b61025a6103c5366004612122565b610bbe565b61025a6103d836600461214c565b610bc9565b6103f06103eb366004611edb565b610c01565b6040516101fe91906121c8565b61025a61040b366004612260565b610d9f565b61020f61041e366004611edb565b610e39565b610436610431366004611edb565b610e44565b6040516101fe989796959493929190612283565b61026f7f9f2df0fed2c77648de5860a4cc508cd0818c85b8b8a1ab4ceeef8d981c8956a681565b61025a61047f3660046120cb565b610f23565b6101f26104923660046122e2565b6001600160a01b03918216600090815260056020908152604080832093909416825291909152205460ff1690565b60006104cb82610f48565b92915050565b6060600080546104e09061230c565b80601f016020809104026020016040519081016040528092919081815260200182805461050c9061230c565b80156105595780601f1061052e57610100808354040283529160200191610559565b820191906000526020600020905b81548152906001019060200180831161053c57829003601f168201915b5050505050905090565b600061056e82610f6d565b506000908152600460205260409020546001600160a01b031690565b600061059582610a6c565b9050806001600160a01b0316836001600160a01b0316036106075760405162461bcd60e51b815260206004820152602160248201527f4552433732313a20617070726f76616c20746f2063757272656e74206f776e656044820152603960f91b60648201526084015b60405180910390fd5b336001600160a01b038216148061062357506106238133610492565b6106955760405162461bcd60e51b815260206004820152603d60248201527f4552433732313a20617070726f76652063616c6c6572206973206e6f7420746f60448201527f6b656e206f776e6572206f7220617070726f76656420666f7220616c6c00000060648201526084016105fe565b61069f8383610fbd565b505050565b60007f9f2df0fed2c77648de5860a4cc508cd0818c85b8b8a1ab4ceeef8d981c8956a66106d08161102b565b6106d8611035565b6001600160a01b0389166107225760405162461bcd60e51b8152602060048201526011602482015270125b9d985b1a59081c9958da5c1a595b9d607a1b60448201526064016105fe565b876107665760405162461bcd60e51b8152602060048201526014602482015273092dcecc2d8d2c840d2dcecded2c6ca40d0c2e6d60631b60448201526064016105fe565b6000888152600b6020526040902054156107ce5760405162461bcd60e51b815260206004820152602360248201527f4e465420616c72656164792065786973747320666f72207468697320696e766f60448201526269636560e81b60648201526084016105fe565b60006107d960095490565b90506107e9600980546001019055565b6000818152600a602090815260408083208c90558b8352600b82528083208490558051610100810182528c81526001600160a01b038e81168285019081528d8216838501908152606084018e81528d84166080860190815260a086018e81524260c088015260e087018a90528a8a52600c909852959097208451815591516001830180546001600160a01b031990811692861692909217905590516002830180548316918516919091179055955160038201559251600484018054909616911617909355905160058201906108be9082612394565b5060c0820151600682015560e0909101516007909101805460ff19169115159190911790556108ed8a8261107d565b6108f78185611097565b6040516001600160a01b0389811682528b16908a9083907f1915231abedefd7dc957a73d70f1204621b45f314a5ac1669ed40e2d665e2fbd9060200160405180910390a49998505050505050505050565b6109523382611153565b61096e5760405162461bcd60e51b81526004016105fe90612454565b61069f8383836111d2565b6000828152600760205260409020600101546109948161102b565b61069f8383611343565b6001600160a01b0381163314610a0e5760405162461bcd60e51b815260206004820152602f60248201527f416363657373436f6e74726f6c3a2063616e206f6e6c792072656e6f756e636560448201526e103937b632b9903337b91039b2b63360891b60648201526084016105fe565b610a1882826113c9565b5050565b7fa49807205ce4d355092ef5a8a18f56e8913cf4a201fbe287825b095693c21775610a468161102b565b610a4e611430565b50565b61069f83838360405180602001604052806000815250610bc9565b6000818152600260205260408120546001600160a01b0316806104cb5760405162461bcd60e51b8152602060048201526018602482015277115490cdcc8c4e881a5b9d985b1a59081d1bdad95b88125160421b60448201526064016105fe565b60006001600160a01b038216610b365760405162461bcd60e51b815260206004820152602960248201527f4552433732313a2061646472657373207a65726f206973206e6f7420612076616044820152683634b21037bbb732b960b91b60648201526084016105fe565b506001600160a01b031660009081526003602052604090205490565b7fa49807205ce4d355092ef5a8a18f56e8913cf4a201fbe287825b095693c21775610b7c8161102b565b610a4e611482565b60009182526007602090815260408084206001600160a01b0393909316845291905290205460ff1690565b6060600180546104e09061230c565b610a183383836114bf565b610bd33383611153565b610bef5760405162461bcd60e51b81526004016105fe90612454565b610bfb8484848461158d565b50505050565b604080516101008101825260008082526020820181905291810182905260608082018390526080820183905260a082015260c0810182905260e0810191909152610c4a826115c0565b610c8d5760405162461bcd60e51b8152602060048201526014602482015273151bdad95b88191bd95cc81b9bdd08195e1a5cdd60621b60448201526064016105fe565b6000828152600c60209081526040918290208251610100810184528154815260018201546001600160a01b03908116938201939093526002820154831693810193909352600381015460608401526004810154909116608083015260058101805460a084019190610cfd9061230c565b80601f0160208091040260200160405190810160405280929190818152602001828054610d299061230c565b8015610d765780601f10610d4b57610100808354040283529160200191610d76565b820191906000526020600020905b815481529060010190602001808311610d5957829003601f168201915b50505091835250506006820154602082015260079091015460ff16151560409091015292915050565b7f9f2df0fed2c77648de5860a4cc508cd0818c85b8b8a1ab4ceeef8d981c8956a6610dc98161102b565b610dd2836115c0565b610e155760405162461bcd60e51b8152602060048201526014602482015273151bdad95b88191bd95cc81b9bdd08195e1a5cdd60621b60448201526064016105fe565b506000918252600c6020526040909120600701805460ff1916911515919091179055565b60606104cb826115dd565b600c6020526000908152604090208054600182015460028301546003840154600485015460058601805495966001600160a01b03958616969486169593949390921692610e909061230c565b80601f0160208091040260200160405190810160405280929190818152602001828054610ebc9061230c565b8015610f095780601f10610ede57610100808354040283529160200191610f09565b820191906000526020600020905b815481529060010190602001808311610eec57829003601f168201915b50505050600683015460079093015491929160ff16905088565b600082815260076020526040902060010154610f3e8161102b565b61069f83836113c9565b60006001600160e01b03198216637965db0b60e01b14806104cb57506104cb826116e5565b610f76816115c0565b610a4e5760405162461bcd60e51b8152602060048201526018602482015277115490cdcc8c4e881a5b9d985b1a59081d1bdad95b88125160421b60448201526064016105fe565b600081815260046020526040902080546001600160a01b0319166001600160a01b0384169081179091558190610ff282610a6c565b6001600160a01b03167f8c5be1e5ebec7d5bd14f71427d1e84f3dd0314c0f7b2291e5b200ac8c7c3b92560405160405180910390a45050565b610a4e813361170a565b60085460ff161561107b5760405162461bcd60e51b815260206004820152601060248201526f14185d5cd8589b194e881c185d5cd95960821b60448201526064016105fe565b565b610a18828260405180602001604052806000815250611763565b6110a0826115c0565b6111035760405162461bcd60e51b815260206004820152602e60248201527f45524337323155524953746f726167653a2055524920736574206f66206e6f6e60448201526d32bc34b9ba32b73a103a37b5b2b760911b60648201526084016105fe565b600082815260066020526040902061111b8282612394565b506040518281527ff8e1a15aba9398e019f0b49df1a4fde98ee17ae345cb5f6b5e2c27f5033e8ce79060200160405180910390a15050565b60008061115f83610a6c565b9050806001600160a01b0316846001600160a01b031614806111a657506001600160a01b0380821660009081526005602090815260408083209388168352929052205460ff165b806111ca5750836001600160a01b03166111bf84610563565b6001600160a01b0316145b949350505050565b826001600160a01b03166111e582610a6c565b6001600160a01b03161461120b5760405162461bcd60e51b81526004016105fe906124a1565b6001600160a01b03821661126d5760405162461bcd60e51b8152602060048201526024808201527f4552433732313a207472616e7366657220746f20746865207a65726f206164646044820152637265737360e01b60648201526084016105fe565b61127a8383836001611796565b826001600160a01b031661128d82610a6c565b6001600160a01b0316146112b35760405162461bcd60e51b81526004016105fe906124a1565b600081815260046020908152604080832080546001600160a01b03199081169091556001600160a01b0387811680865260038552838620805460001901905590871680865283862080546001019055868652600290945282852080549092168417909155905184937fddf252ad1be2c89b69c2b068fc378daa952ba7f163c4a11628f55a4df523b3ef91a4505050565b61134d8282610b84565b610a185760008281526007602090815260408083206001600160a01b03851684529091529020805460ff191660011790556113853390565b6001600160a01b0316816001600160a01b0316837f2f8788117e7eff1d82e926ec794901d17c78024a50270940304540a733656f0d60405160405180910390a45050565b6113d38282610b84565b15610a185760008281526007602090815260408083206001600160a01b0385168085529252808320805460ff1916905551339285917ff6391f5c32d9c69d2a47ea670b442974b53935d1edc7fd64eb21e047a839171b9190a45050565b6114386117a3565b6008805460ff191690557f5db9ee0a495bf2e6ff9c91a7834c1ba4fdd244a5e8aa4e537bd38aeae4b073aa335b6040516001600160a01b03909116815260200160405180910390a1565b61148a611035565b6008805460ff191660011790557f62e78cea01bee320cd4e420270b5ea74000d11b0c9f74754ebdbfc544b05a2586114653390565b816001600160a01b0316836001600160a01b0316036115205760405162461bcd60e51b815260206004820152601960248201527f4552433732313a20617070726f766520746f2063616c6c65720000000000000060448201526064016105fe565b6001600160a01b03838116600081815260056020908152604080832094871680845294825291829020805460ff191686151590811790915591519182527f17307eab39ab6107e8899845ad3d59bd9653f200f220920489ca2b5937696c31910160405180910390a3505050565b6115988484846111d2565b6115a4848484846117ec565b610bfb5760405162461bcd60e51b81526004016105fe906124e6565b6000908152600260205260409020546001600160a01b0316151590565b60606115e882610f6d565b600082815260066020526040812080546116019061230c565b80601f016020809104026020016040519081016040528092919081815260200182805461162d9061230c565b801561167a5780601f1061164f5761010080835404028352916020019161167a565b820191906000526020600020905b81548152906001019060200180831161165d57829003601f168201915b50505050509050600061169860408051602081019091526000815290565b905080516000036116aa575092915050565b8151156116dc5780826040516020016116c4929190612538565b60405160208183030381529060405292505050919050565b6111ca846118ed565b60006001600160e01b03198216632483248360e11b14806104cb57506104cb82611961565b6117148282610b84565b610a1857611721816119b1565b61172c8360206119c3565b60405160200161173d929190612567565b60408051601f198184030181529082905262461bcd60e51b82526105fe91600401611ec8565b61176d8383611b5f565b61177a60008484846117ec565b61069f5760405162461bcd60e51b81526004016105fe906124e6565b61179e611035565b610bfb565b60085460ff1661107b5760405162461bcd60e51b815260206004820152601460248201527314185d5cd8589b194e881b9bdd081c185d5cd95960621b60448201526064016105fe565b60006001600160a01b0384163b156118e257604051630a85bd0160e11b81526001600160a01b0385169063150b7a02906118309033908990889088906004016125dc565b6020604051808303816000875af192505050801561186b575060408051601f3d908101601f1916820190925261186891810190612619565b60015b6118c8573d808015611899576040519150601f19603f3d011682016040523d82523d6000602084013e61189e565b606091505b5080516000036118c05760405162461bcd60e51b81526004016105fe906124e6565b805181602001fd5b6001600160e01b031916630a85bd0160e11b1490506111ca565b506001949350505050565b60606118f882610f6d565b600061190f60408051602081019091526000815290565b9050600081511161192f576040518060200160405280600081525061195a565b8061193984611cda565b60405160200161194a929190612538565b6040516020818303038152906040525b9392505050565b60006001600160e01b031982166380ac58cd60e01b148061199257506001600160e01b03198216635b5e139f60e01b145b806104cb57506301ffc9a760e01b6001600160e01b03198316146104cb565b60606104cb6001600160a01b03831660145b606060006119d283600261264c565b6119dd906002612663565b67ffffffffffffffff8111156119f5576119f5611f3a565b6040519080825280601f01601f191660200182016040528015611a1f576020820181803683370190505b509050600360fc1b81600081518110611a3a57611a3a612676565b60200101906001600160f81b031916908160001a905350600f60fb1b81600181518110611a6957611a69612676565b60200101906001600160f81b031916908160001a9053506000611a8d84600261264c565b611a98906001612663565b90505b6001811115611b10576f181899199a1a9b1b9c1cb0b131b232b360811b85600f1660108110611acc57611acc612676565b1a60f81b828281518110611ae257611ae2612676565b60200101906001600160f81b031916908160001a90535060049490941c93611b098161268c565b9050611a9b565b50831561195a5760405162461bcd60e51b815260206004820181905260248201527f537472696e67733a20686578206c656e67746820696e73756666696369656e7460448201526064016105fe565b6001600160a01b038216611bb55760405162461bcd60e51b815260206004820181905260248201527f4552433732313a206d696e7420746f20746865207a65726f206164647265737360448201526064016105fe565b611bbe816115c0565b15611c0b5760405162461bcd60e51b815260206004820152601c60248201527f4552433732313a20746f6b656e20616c7265616479206d696e7465640000000060448201526064016105fe565b611c19600083836001611796565b611c22816115c0565b15611c6f5760405162461bcd60e51b815260206004820152601c60248201527f4552433732313a20746f6b656e20616c7265616479206d696e7465640000000060448201526064016105fe565b6001600160a01b038216600081815260036020908152604080832080546001019055848352600290915280822080546001600160a01b0319168417905551839291907fddf252ad1be2c89b69c2b068fc378daa952ba7f163c4a11628f55a4df523b3ef908290a45050565b60606000611ce783611d6d565b600101905060008167ffffffffffffffff811115611d0757611d07611f3a565b6040519080825280601f01601f191660200182016040528015611d31576020820181803683370190505b5090508181016020015b600019016f181899199a1a9b1b9c1cb0b131b232b360811b600a86061a8153600a8504945084611d3b57509392505050565b60008072184f03e93ff9f4daa797ed6e38ed64bf6a1f0160401b8310611dac5772184f03e93ff9f4daa797ed6e38ed64bf6a1f0160401b830492506040015b6d04ee2d6d415b85acef81000000008310611dd8576d04ee2d6d415b85acef8100000000830492506020015b662386f26fc100008310611df657662386f26fc10000830492506010015b6305f5e1008310611e0e576305f5e100830492506008015b6127108310611e2257612710830492506004015b60648310611e34576064830492506002015b600a83106104cb5760010192915050565b6001600160e01b031981168114610a4e57600080fd5b600060208284031215611e6d57600080fd5b813561195a81611e45565b60005b83811015611e93578181015183820152602001611e7b565b50506000910152565b60008151808452611eb4816020860160208601611e78565b601f01601f19169290920160200192915050565b60208152600061195a6020830184611e9c565b600060208284031215611eed57600080fd5b5035919050565b80356001600160a01b0381168114611f0b57600080fd5b919050565b60008060408385031215611f2357600080fd5b611f2c83611ef4565b946020939093013593505050565b634e487b7160e01b600052604160045260246000fd5b600067ffffffffffffffff80841115611f6b57611f6b611f3a565b604051601f8501601f19908116603f01168101908282118183101715611f9357611f93611f3a565b81604052809350858152868686011115611fac57600080fd5b858560208301376000602087830101525050509392505050565b600082601f830112611fd757600080fd5b61195a83833560208501611f50565b600080600080600080600060e0888a03121561200157600080fd5b61200a88611ef4565b96506020880135955061201f60408901611ef4565b94506060880135935061203460808901611ef4565b925060a088013567ffffffffffffffff8082111561205157600080fd5b61205d8b838c01611fc6565b935060c08a013591508082111561207357600080fd5b506120808a828b01611fc6565b91505092959891949750929550565b6000806000606084860312156120a457600080fd5b6120ad84611ef4565b92506120bb60208501611ef4565b9150604084013590509250925092565b600080604083850312156120de57600080fd5b823591506120ee60208401611ef4565b90509250929050565b60006020828403121561210957600080fd5b61195a82611ef4565b80358015158114611f0b57600080fd5b6000806040838503121561213557600080fd5b61213e83611ef4565b91506120ee60208401612112565b6000806000806080858703121561216257600080fd5b61216b85611ef4565b935061217960208601611ef4565b925060408501359150606085013567ffffffffffffffff81111561219c57600080fd5b8501601f810187136121ad57600080fd5b6121bc87823560208401611f50565b91505092959194509250565b60208152815160208201526000602083015160018060a01b038082166040850152806040860151166060850152505060608301516080830152608083015161221b60a08401826001600160a01b03169052565b5060a08301516101008060c0850152612238610120850183611e9c565b915060c085015160e085015260e08501516122568286018215159052565b5090949350505050565b6000806040838503121561227357600080fd5b823591506120ee60208401612112565b8881526001600160a01b0388811660208301528781166040830152606082018790528516608082015261010060a082018190526000906122c583820187611e9c565b60c0840195909552505090151560e0909101529695505050505050565b600080604083850312156122f557600080fd5b6122fe83611ef4565b91506120ee60208401611ef4565b600181811c9082168061232057607f821691505b60208210810361234057634e487b7160e01b600052602260045260246000fd5b50919050565b601f82111561069f57600081815260208120601f850160051c8101602086101561236d5750805b601f850160051c820191505b8181101561238c57828155600101612379565b505050505050565b815167ffffffffffffffff8111156123ae576123ae611f3a565b6123c2816123bc845461230c565b84612346565b602080601f8311600181146123f757600084156123df5750858301515b600019600386901b1c1916600185901b17855561238c565b600085815260208120601f198616915b8281101561242657888601518255948401946001909101908401612407565b50858210156124445787850151600019600388901b60f8161c191681555b5050505050600190811b01905550565b6020808252602d908201527f4552433732313a2063616c6c6572206973206e6f7420746f6b656e206f776e6560408201526c1c881bdc88185c1c1c9bdd9959609a1b606082015260800190565b60208082526025908201527f4552433732313a207472616e736665722066726f6d20696e636f72726563742060408201526437bbb732b960d91b606082015260800190565b60208082526032908201527f4552433732313a207472616e7366657220746f206e6f6e20455243373231526560408201527131b2b4bb32b91034b6b83632b6b2b73a32b960711b606082015260800190565b6000835161254a818460208801611e78565b83519083019061255e818360208801611e78565b01949350505050565b7f416363657373436f6e74726f6c3a206163636f756e742000000000000000000081526000835161259f816017850160208801611e78565b7001034b99036b4b9b9b4b733903937b6329607d1b60179184019182015283516125d0816028840160208801611e78565b01602801949350505050565b6001600160a01b038581168252841660208201526040810183905260806060820181905260009061260f90830184611e9c565b9695505050505050565b60006020828403121561262b57600080fd5b815161195a81611e45565b634e487b7160e01b600052601160045260246000fd5b80820281158282048414176104cb576104cb612636565b808201808211156104cb576104cb612636565b634e487b7160e01b600052603260045260246000fd5b60008161269b5761269b612636565b50600019019056fea26469706673582212201f94936f9740ca9e10a7603a4c3adbf8cf202defa0ac679d472a681d7c3cc94864736f6c63430008130033",
  "linkReferences": {},
  "deployedLinkReferences": {}
}