{
  "_format": "hh-sol-artifact-1",
  "contractName": "InvoiceRegistry",
  "sourceName": "contracts/InvoiceRegistry.sol",
  "abi": [
    {
      "inputs": [
        {
          "internalType": "address",
          "name": "_admin",
          "type": "address"
        },
        {
          "internalType": "address",
          "name": "_backend",
          "type": "address"
        }
      ],
      "stateMutability": "nonpayable",
      "type": "constructor"
    },
    {
      "inputs": [],
      "name": "InsufficientPayment",
      "type": "error"
    },
    {
      "inputs": [],
      "name": "InvalidAddress",
      "type": "error"
    },
    {
      "inputs": [],
      "name": "InvalidAmount",
      "type": "error"
    },
    {
      "inputs": [],
      "name": "InvalidChainId",
      "type": "error"
    },
    {
      "inputs": [],
      "name": "InvalidInvoiceState",
      "type": "error"
    },
    {
      "inputs": [],
      "name": "InvoiceAlreadyExists",
      "type": "error"
    },
    {
      "inputs": [],
      "name": "InvoiceNotFound",
      "type": "error"
    },
    {
      "inputs": [],
      "name": "TransferFailed",
      "type": "error"
    },
    {
      "inputs": [],
      "name": "UnauthorizedAccess",
      "type": "error"
    },
    {
      "anonymous": false,
      "inputs": [
        {
          "indexed": true,
          "internalType": "bytes32",
          "name": "invoiceHash",
          "type": "bytes32"
        },
        {
          "indexed": true,
          "internalType": "address",
          "name": "employer",
          "type": "address"
        },
        {
          "indexed": false,
          "internalType": "uint256",
          "name": "timestamp",
          "type": "uint256"
        }
      ],
      "name": "InvoiceAccepted",
      "type": "event"
    },
    {
      "anonymous": false,
      "inputs": [
        {
          "indexed": true,
          "internalType": "bytes32",
          "name": "invoiceHash",
          "type": "bytes32"
        },
        {
          "indexed": true,
          "internalType": "address",
          "name": "canceller",
          "type": "address"
        },
        {
          "indexed": false,
          "internalType": "uint256",
          "name": "timestamp",
          "type": "uint256"
        }
      ],
      "name": "InvoiceCancelled",
      "type": "event"
    },
    {
      "anonymous": false,
      "inputs": [
        {
          "indexed": true,
          "internalType": "bytes32",
          "name": "invoiceHash",
          "type": "bytes32"
        },
        {
          "indexed": true,
          "internalType": "address",
          "name": "payer",
          "type": "address"
        },
        {
          "indexed": false,
          "internalType": "uint256",
          "name": "timestamp",
          "type": "uint256"
        }
      ],
      "name": "InvoicePaid",
      "type": "event"
    },
    {
      "anonymous": false,
      "inputs": [
        {
          "indexed": true,
          "internalType": "bytes32",
          "name": "invoiceHash",
          "type": "bytes32"
        },
        {
          "indexed": true,
          "internalType": "address",
          "name": "freelancer",
          "type": "address"
        },
        {
          "indexed": true,
          "internalType": "address",
          "name": "employer",
          "type": "address"
        },
        {
          "indexed": false,
          "internalType": "uint256",
          "name": "amount",
          "type": "uint256"
        },
        {
          "indexed": false,
          "internalType": "address",
          "name": "token",
          "type": "address"
        },
        {
          "indexed": false,
          "internalType": "uint256",
          "name": "chainId",
          "type": "uint256"
        },
        {
          "indexed": false,
          "internalType": "uint256",
          "name": "timestamp",
          "type": "uint256"
        }
      ],
      "name": "InvoiceRegistered",
      "type": "event"
    },
    {
      "anonymous": false,
      "inputs": [
        {
          "indexed": true,
          "internalType": "bytes32",
          "name": "invoiceHash",
          "type": "bytes32"
        },
        {
          "indexed": true,
          "internalType": "address",
          "name": "employer",
          "type": "address"
        },
        {
          "indexed": false,
          "internalType": "string",
          "name": "reason",
          "type": "string"
        },
        {
          "indexed": false,
          "internalType": "uint256",
          "name": "timestamp",
          "type": "uint256"
        }
      ],
      "name": "InvoiceRejected",
      "type": "event"
    },
    {
      "anonymous": false,
      "inputs": [
        {
          "indexed": false,
          "internalType": "address",
          "name": "account",
          "type": "address"
        }
      ],
      "name": "Paused",
      "type": "event"
    },
    {
      "anonymous": false,
      "inputs": [
        {
          "indexed": true,
          "internalType": "bytes32",
          "name": "invoiceHash",
          "type": "bytes32"
        },
        {
          "indexed": true,
          "internalType": "address",
          "name": "depositor",
          "type": "address"
        },
        {
          "indexed": false,
          "internalType": "uint256",
          "name": "amount",
          "type": "uint256"
        },
        {
          "indexed": false,
          "internalType": "address",
          "name": "token",
          "type": "address"
        },
        {
          "indexed": false,
          "internalType": "uint256",
          "name": "timestamp",
          "type": "uint256"
        }
      ],
      "name": "PaymentDeposited",
      "type": "event"
    },
    {
      "anonymous": false,
      "inputs": [
        {
          "indexed": true,
          "internalType": "bytes32",
          "name": "invoiceHash",
          "type": "bytes32"
        },
        {
          "indexed": true,
          "internalType": "address",
          "name": "refundRecipient",
          "type": "address"
        },
        {
          "indexed": false,
          "internalType": "uint256",
          "name": "amount",
          "type": "uint256"
        },
        {
          "indexed": false,
          "internalType": "address",
          "name": "token",
          "type": "address"
        },
        {
          "indexed": false,
          "internalType": "uint256",
          "name": "timestamp",
          "type": "uint256"
        }
      ],
      "name": "PaymentRefunded",
      "type": "event"
    },
    {
      "anonymous": false,
      "inputs": [
        {
          "indexed": true,
          "internalType": "bytes32",
          "name": "invoiceHash",
          "type": "bytes32"
        },
        {
          "indexed": true,
          "internalType": "address",
          "name": "recipient",
          "type": "address"
        },
        {
          "indexed": false,
          "internalType": "uint256",
          "name": "amount",
          "type": "uint256"
        },
        {
          "indexed": false,
          "internalType": "address",
          "name": "token",
          "type": "address"
        },
        {
          "indexed": false,
          "internalType": "uint256",
          "name": "timestamp",
          "type": "uint256"
        }
      ],
      "name": "PaymentReleased",
      "type": "event"
    },
    {
      "anonymous": false,
      "inputs": [
        {
          "indexed": true,
          "internalType": "bytes32",
          "name": "role",
          "type": "bytes32"
        },
        {
          "indexed": true,
          "internalType": "bytes32",
          "name": "previousAdminRole",
          "type": "bytes32"
        },
        {
          "indexed": true,
          "internalType": "bytes32",
          "name": "newAdminRole",
          "type": "bytes32"
        }
      ],
      "name": "RoleAdminChanged",
      "type": "event"
    },
    {
      "anonymous": false,
      "inputs": [
        {
          "indexed": true,
          "internalType": "bytes32",
          "name": "role",
          "type": "bytes32"
        },
        {
          "indexed": true,
          "internalType": "address",
          "name": "account",
          "type": "address"
        },
        {
          "indexed": true,
          "internalType": "address",
          "name": "sender",
          "type": "address"
        }
      ],
      "name": "RoleGranted",
      "type": "event"
    },
    {
      "anonymous": false,
      "inputs": [
        {
          "indexed": true,
          "internalType": "bytes32",
          "name": "role",
          "type": "bytes32"
        },
        {
          "indexed": true,
          "internalType": "address",
          "name": "account",
          "type": "address"
        },
        {
          "indexed": true,
          "internalType": "address",
          "name": "sender",
          "type": "address"
        }
      ],
      "name": "RoleRevoked",
      "type": "event"
    },
    {
      "anonymous": false,
      "inputs": [
        {
          "indexed": false,
          "internalType": "address",
          "name": "account",
          "type": "address"
        }
      ],
      "name": "Unpaused",
      "type": "event"
    },
    {
      "inputs": [],
      "name": "ADMIN_ROLE",
      "outputs": [
        {
          "internalType": "bytes32",
          "name": "",
          "type": "bytes32"
        }
      ],
      "stateMutability": "view",
      "type": "function"
    },
    {
      "inputs": [],
      "name": "BACKEND_ROLE",
      "outputs": [
        {
          "internalType": "bytes32",
          "name": "",
          "type": "bytes32"
        }
      ],
      "stateMutability": "view",
      "type": "function"
    },
    {
      "inputs": [],
      "name": "DEFAULT_ADMIN_ROLE",
      "outputs": [
        {
          "internalType": "bytes32",
          "name": "",
          "type": "bytes32"
        }
      ],
      "stateMutability": "view",
      "type": "function"
    },
    {
      "inputs": [
        {
          "internalType": "bytes32",
          "name": "invoiceHash",
          "type": "bytes32"
        }
      ],
      "name": "acceptInvoice",
      "outputs": [],
      "stateMutability": "nonpayable",
      "type": "function"
    },
    {
      "inputs": [
        {
          "internalType": "bytes32",
          "name": "invoiceHash",
          "type": "bytes32"
        }
      ],
      "name": "cancelInvoice",
      "outputs": [],
      "stateMutability": "nonpayable",
      "type": "function"
    },
    {
      "inputs": [
        {
          "internalType": "bytes32",
          "name": "invoiceHash",
          "type": "bytes32"
        }
      ],
      "name": "depositPayment",
      "outputs": [],
      "stateMutability": "payable",
      "type": "function"
    },
    {
      "inputs": [
        {
          "internalType": "address",
          "name": "token",
          "type": "address"
        },
        {
          "internalType": "uint256",
          "name": "amount",
          "type": "uint256"
        },
        {
          "internalType": "address",
          "name": "recipient",
          "type": "address"
        }
      ],
      "name": "emergencyWithdraw",
      "outputs": [],
      "stateMutability": "nonpayable",
      "type": "function"
    },
    {
      "inputs": [
        {
          "internalType": "address",
          "name": "",
          "type": "address"
        },
        {
          "internalType": "uint256",
          "name": "",
          "type": "uint256"
        }
      ],
      "name": "employerInvoices",
      "outputs": [
        {
          "internalType": "bytes32",
          "name": "",
          "type": "bytes32"
        }
      ],
      "stateMutability": "view",
      "type": "function"
    },
    {
      "inputs": [
        {
          "internalType": "bytes32",
          "name": "",
          "type": "bytes32"
        }
      ],
      "name": "escrowBalances",
      "outputs": [
        {
          "internalType": "uint256",
          "name": "",
          "type": "uint256"
        }
      ],
      "stateMutability": "view",
      "type": "function"
    },
    {
      "inputs": [
        {
          "internalType": "address",
          "name": "",
          "type": "address"
        },
        {
          "internalType": "uint256",
          "name": "",
          "type": "uint256"
        }
      ],
      "name": "freelancerInvoices",
      "outputs": [
        {
          "internalType": "bytes32",
          "name": "",
          "type": "bytes32"
        }
      ],
      "stateMutability": "view",
      "type": "function"
    },
    {
      "inputs": [
        {
          "internalType": "address",
          "name": "employer",
          "type": "address"
        }
      ],
      "name": "getEmployerInvoices",
      "outputs": [
        {
          "internalType": "bytes32[]",
          "name": "",
          "type": "bytes32[]"
        }
      ],
      "stateMutability": "view",
      "type": "function"
    },
    {
      "inputs": [
        {
          "internalType": "address",
          "name": "freelancer",
          "type": "address"
        }
      ],
      "name": "getFreelancerInvoices",
      "outputs": [
        {
          "internalType": "bytes32[]",
          "name": "",
          "type": "bytes32[]"
        }
      ],
      "stateMutability": "view",
      "type": "function"
    },
    {
      "inputs": [
        {
          "internalType": "bytes32",
          "name": "invoiceHash",
          "type": "bytes32"
        }
      ],
      "name": "getInvoice",
      "outputs": [
        {
          "components": [
            {
              "internalType": "bytes32",
              "name": "invoiceHash",
              "type": "bytes32"
            },
            {
              "internalType": "address",
              "name": "freelancerAddress",
              "type": "address"
            },
            {
              "internalType": "address",
              "name": "employerAddress",
              "type": "address"
            },
            {
              "internalType": "uint256",
              "name": "amount",
              "type": "uint256"
            },
            {
              "internalType": "address",
              "name": "tokenAddress",
              "type": "address"
            },
            {
              "internalType": "uint256",
              "name": "chainId",
              "type": "uint256"
            },
            {
              "internalType": "enum InvoiceRegistry.InvoiceState",
              "name": "state",
              "type": "uint8"
            },
            {
              "internalType": "uint256",
              "name": "createdAt",
              "type": "uint256"
            },
            {
              "internalType": "uint256",
              "name": "updatedAt",
              "type": "uint256"
            },
            {
              "internalType": "string",
              "name": "rejectionReason",
              "type": "string"
            },
            {
              "internalType": "bool",
              "name": "hasEscrow",
              "type": "bool"
            }
          ],
          "internalType": "struct InvoiceRegistry.Invoice",
          "name": "",
          "type": "tuple"
        }
      ],
      "stateMutability": "view",
      "type": "function"
    },
    {
      "inputs": [
        {
          "internalType": "bytes32",
          "name": "role",
          "type": "bytes32"
        }
      ],
      "name": "getRoleAdmin",
      "outputs": [
        {
          "internalType": "bytes32",
          "name": "",
          "type": "bytes32"
        }
      ],
      "stateMutability": "view",
      "type": "function"
    },
    {
      "inputs": [],
      "name": "getStatistics",
      "outputs": [
        {
          "internalType": "uint256",
          "name": "",
          "type": "uint256"
        },
        {
          "internalType": "uint256",
          "name": "",
          "type": "uint256"
        },
        {
          "internalType": "uint256",
          "name": "",
          "type": "uint256"
        }
      ],
      "stateMutability": "view",
      "type": "function"
    },
    {
      "inputs": [
        {
          "internalType": "bytes32",
          "name": "role",
          "type": "bytes32"
        },
        {
          "internalType": "address",
          "name": "account",
          "type": "address"
        }
      ],
      "name": "grantRole",
      "outputs": [],
      "stateMutability": "nonpayable",
      "type": "function"
    },
    {
      "inputs": [
        {
          "internalType": "bytes32",
          "name": "role",
          "type": "bytes32"
        },
        {
          "internalType": "address",
          "name": "account",
          "type": "address"
        }
      ],
      "name": "hasRole",
      "outputs": [
        {
          "internalType": "bool",
          "name": "",
          "type": "bool"
        }
      ],
      "stateMutability": "view",
      "type": "function"
    },
    {
      "inputs": [
        {
          "internalType": "bytes32",
          "name": "invoiceHash",
          "type": "bytes32"
        }
      ],
      "name": "invoiceExists",
      "outputs": [
        {
          "internalType": "bool",
          "name": "",
          "type": "bool"
        }
      ],
      "stateMutability": "view",
      "type": "function"
    },
    {
      "inputs": [
        {
          "internalType": "bytes32",
          "name": "",
          "type": "bytes32"
        }
      ],
      "name": "invoices",
      "outputs": [
        {
          "internalType": "bytes32",
          "name": "invoiceHash",
          "type": "bytes32"
        },
        {
          "internalType": "address",
          "name": "freelancerAddress",
          "type": "address"
        },
        {
          "internalType": "address",
          "name": "employerAddress",
          "type": "address"
        },
        {
          "internalType": "uint256",
          "name": "amount",
          "type": "uint256"
        },
        {
          "internalType": "address",
          "name": "tokenAddress",
          "type": "address"
        },
        {
          "internalType": "uint256",
          "name": "chainId",
          "type": "uint256"
        },
        {
          "internalType": "enum InvoiceRegistry.InvoiceState",
          "name": "state",
          "type": "uint8"
        },
        {
          "internalType": "uint256",
          "name": "createdAt",
          "type": "uint256"
        },
        {
          "internalType": "uint256",
          "name": "updatedAt",
          "type": "uint256"
        },
        {
          "internalType": "string",
          "name": "rejectionReason",
          "type": "string"
        },
        {
          "internalType": "bool",
          "name": "hasEscrow",
          "type": "bool"
        }
      ],
      "stateMutability": "view",
      "type": "function"
    },
    {
      "inputs": [
        {
          "internalType": "bytes32",
          "name": "invoiceHash",
          "type": "bytes32"
        }
      ],
      "name": "markAsPaid",
      "outputs": [],
      "stateMutability": "nonpayable",
      "type": "function"
    },
    {
      "inputs": [],
      "name": "pause",
      "outputs": [],
      "stateMutability": "nonpayable",
      "type": "function"
    },
    {
      "inputs": [],
      "name": "paused",
      "outputs": [
        {
          "internalType": "bool",
          "name": "",
          "type": "bool"
        }
      ],
      "stateMutability": "view",
      "type": "function"
    },
    {
      "inputs": [
        {
          "internalType": "bytes32",
          "name": "invoiceHash",
          "type": "bytes32"
        }
      ],
      "name": "refundPayment",
      "outputs": [],
      "stateMutability": "nonpayable",
      "type": "function"
    },
    {
      "inputs": [
        {
          "internalType": "bytes32",
          "name": "invoiceHash",
          "type": "bytes32"
        },
        {
          "internalType": "address",
          "name": "freelancerAddress",
          "type": "address"
        },
        {
          "internalType": "address",
          "name": "employerAddress",
          "type": "address"
        },
        {
          "internalType": "uint256",
          "name": "amount",
          "type": "uint256"
        },
        {
          "internalType": "address",
          "name": "tokenAddress",
          "type": "address"
        },
        {
          "internalType": "uint256",
          "name": "chainId",
          "type": "uint256"
        }
      ],
      "name": "registerInvoice",
      "outputs": [],
      "stateMutability": "nonpayable",
      "type": "function"
    },
    {
      "inputs": [
        {
          "internalType": "bytes32",
          "name": "invoiceHash",
          "type": "bytes32"
        },
        {
          "internalType": "string",
          "name": "reason",
          "type": "string"
        }
      ],
      "name": "rejectInvoice",
      "outputs": [],
      "stateMutability": "nonpayable",
      "type": "function"
    },
    {
      "inputs": [
        {
          "internalType": "bytes32",
          "name": "invoiceHash",
          "type": "bytes32"
        }
      ],
      "name": "releasePayment",
      "outputs": [],
      "stateMutability": "nonpayable",
      "type": "function"
    },
    {
      "inputs": [
        {
          "internalType": "bytes32",
          "name": "role",
          "type": "bytes32"
        },
        {
          "internalType": "address",
          "name": "account",
          "type": "address"
        }
      ],
      "name": "renounceRole",
      "outputs": [],
      "stateMutability": "nonpayable",
      "type": "function"
    },
    {
      "inputs": [
        {
          "internalType": "bytes32",
          "name": "role",
          "type": "bytes32"
        },
        {
          "internalType": "address",
          "name": "account",
          "type": "address"
        }
      ],
      "name": "revokeRole",
      "outputs": [],
      "stateMutability": "nonpayable",
      "type": "function"
    },
    {
      "inputs": [
        {
          "internalType": "bytes4",
          "name": "interfaceId",
          "type": "bytes4"
        }
      ],
      "name": "supportsInterface",
      "outputs": [
        {
          "internalType": "bool",
          "name": "",
          "type": "bool"
        }
      ],
      "stateMutability": "view",
      "type": "function"
    },
    {
      "inputs": [],
      "name": "totalEscrowVolume",
      "outputs": [
        {
          "internalType": "uint256",
          "name": "",
          "type": "uint256"
        }
      ],
      "stateMutability": "view",
      "type": "function"
    },
    {
      "inputs": [],
      "name": "totalInvoices",
      "outputs": [
        {
          "internalType": "uint256",
          "name": "",
          "type": "uint256"
        }
      ],
      "stateMutability": "view",
      "type": "function"
    },
    {
      "inputs": [],
      "name": "totalPaidInvoices",
      "outputs": [
        {
          "internalType": "uint256",
          "name": "",
          "type": "uint256"
        }
      ],
      "stateMutability": "view",
      "type": "function"
    },
    {
      "inputs": [],
      "name": "unpause",
      "outputs": [],
      "stateMutability": "nonpayable",
      "type": "function"
    },
    {
      "stateMutability": "payable",
      "type": "receive"
    }
  ],
  "bytecode": "0x60806040523480156200001157600080fd5b5060405162002d0d38038062002d0d8339810160408190526200003491620001aa565b600180556002805460ff191690556001600160a01b03821615806200006057506001600160a01b038116155b156200007f5760405163e6c4247b60e01b815260040160405180910390fd5b6200008c600083620000ec565b620000b87fa49807205ce4d355092ef5a8a18f56e8913cf4a201fbe287825b095693c2177583620000ec565b620000e47f25cf2b509f2a7f322675b2a5322b182f44ad2c03ac941a0af17c9b178f5d5d5f82620000ec565b5050620001e2565b6000828152602081815260408083206001600160a01b038516845290915290205460ff1662000189576000828152602081815260408083206001600160a01b03851684529091529020805460ff19166001179055620001483390565b6001600160a01b0316816001600160a01b0316837f2f8788117e7eff1d82e926ec794901d17c78024a50270940304540a733656f0d60405160405180910390a45b5050565b80516001600160a01b0381168114620001a557600080fd5b919050565b60008060408385031215620001be57600080fd5b620001c9836200018d565b9150620001d9602084016200018d565b90509250929050565b612b1b80620001f26000396000f3fe6080604052600436106101f25760003560e01c80635d7d538a1161010d578063a0c3767b116100a0578063cb802c8b1161006f578063cb802c8b1461059d578063d547741f146105ca578063de8f8b3f146105ea578063f8a8a0761461060a578063f9621cdb1461064157600080fd5b8063a0c3767b14610528578063a217fddf14610548578063a9f1aba81461055d578063c0aa7e2e1461057d57600080fd5b806391d14854116100dc57806391d14854146104a657806392c2becc146104c657806398c9eb91146104e85780639ae37d921461050857600080fd5b80635d7d538a1461043957806375b238fc1461044f5780637aa1ed58146104715780638456cb591461049157600080fd5b806334ea1015116101855780633f4ba83a116101545780633f4ba83a146103cc57806347a424b5146103e1578063551512de146104015780635c975abb1461042157600080fd5b806334ea10151461033b57806336568abe1461034e578063372d6b271461036e5780633b5775de1461039f57600080fd5b8063248a9ca3116101c1578063248a9ca31461029c5780632c01aa05146102cc5780632f2ff15d146102f9578063343bfd081461031b57600080fd5b806301ffc9a7146101fe5780631709078b146102335780632304e9dc146102625780632448e73e1461028657600080fd5b366101f957005b600080fd5b34801561020a57600080fd5b5061021e610219366004612306565b610661565b60405190151581526020015b60405180910390f35b34801561023f57600080fd5b5061021e61024e366004612330565b600090815260036020526040902054151590565b34801561026e57600080fd5b5061027860095481565b60405190815260200161022a565b34801561029257600080fd5b5061027860085481565b3480156102a857600080fd5b506102786102b7366004612330565b60009081526020819052604090206001015490565b3480156102d857600080fd5b506102ec6102e7366004612365565b610672565b60405161022a9190612380565b34801561030557600080fd5b506103196103143660046123c4565b6106de565b005b34801561032757600080fd5b506102786103363660046123f0565b610708565b610319610349366004612330565b610739565b34801561035a57600080fd5b506103196103693660046123c4565b61093e565b34801561037a57600080fd5b506007546008546009546040805193845260208401929092529082015260600161022a565b3480156103ab57600080fd5b506102786103ba366004612330565b60046020526000908152604090205481565b3480156103d857600080fd5b506103196109c1565b3480156103ed57600080fd5b506103196103fc366004612330565b6109e1565b34801561040d57600080fd5b5061031961041c36600461241a565b610af6565b34801561042d57600080fd5b5060025460ff1661021e565b34801561044557600080fd5b5061027860075481565b34801561045b57600080fd5b50610278600080516020612ac683398151915281565b34801561047d57600080fd5b5061031961048c366004612330565b610bf8565b34801561049d57600080fd5b50610319610eb8565b3480156104b257600080fd5b5061021e6104c13660046123c4565b610ed8565b3480156104d257600080fd5b50610278600080516020612aa683398151915281565b3480156104f457600080fd5b506102ec610503366004612365565b610f01565b34801561051457600080fd5b50610319610523366004612456565b610f6b565b34801561053457600080fd5b50610319610543366004612330565b611098565b34801561055457600080fd5b50610278600081565b34801561056957600080fd5b506102786105783660046123f0565b6111b5565b34801561058957600080fd5b50610319610598366004612330565b6111d1565b3480156105a957600080fd5b506105bd6105b8366004612330565b6112b7565b60405161022a919061255a565b3480156105d657600080fd5b506103196105e53660046123c4565b61148f565b3480156105f657600080fd5b50610319610605366004612330565b6114b4565b34801561061657600080fd5b5061062a610625366004612330565b611702565b60405161022a9b9a99989796959493929190612624565b34801561064d57600080fd5b5061031961065c3660046126a2565b6117fb565b600061066c82611b57565b92915050565b6001600160a01b0381166000908152600660209081526040918290208054835181840281018401909452808452606093928301828280156106d257602002820191906000526020600020905b8154815260200190600101908083116106be575b50505050509050919050565b6000828152602081905260409020600101546106f981611b8c565b6107038383611b96565b505050565b6006602052816000526040600020818154811061072457600080fd5b90600052602060002001600091509150505481565b610741611c1a565b610749611c62565b6000818152600360205260409020805461077657604051634d5c803960e11b815260040160405180910390fd5b60028101546001600160a01b031633146107a357604051631a27eac360e11b815260040160405180910390fd5b600060068083015460ff16908111156107be576107be6124d2565b141580156107e55750600160068083015460ff16908111156107e2576107e26124d2565b14155b156108035760405163487e440960e01b815260040160405180910390fd5b60048101546000906001600160a01b0316610843578160030154341461083c5760405163cd1c886760e01b815260040160405180910390fd5b503461088f565b34156108625760405163162908e360e11b815260040160405180910390fd5b600482015460038301546001600160a01b039091169061088790829033903090611cbb565b505060038101545b60068201805460ff19908116600317909155600a8301805490911660011790554260088301556000838152600460205260408120829055600980548392906108d8908490612717565b90915550506004820154604080518381526001600160a01b0390921660208301524290820152339084907fae03c75594d60e2e0482216685bc1a233639dfd5271635940dc81d8ae2095a16906060015b60405180910390a3505061093b60018055565b50565b6001600160a01b03811633146109b35760405162461bcd60e51b815260206004820152602f60248201527f416363657373436f6e74726f6c3a2063616e206f6e6c792072656e6f756e636560448201526e103937b632b9903337b91039b2b63360891b60648201526084015b60405180910390fd5b6109bd8282611d26565b5050565b600080516020612ac68339815191526109d981611b8c565b61093b611d8b565b6109e9611c1a565b60008181526003602052604090208054610a1657604051634d5c803960e11b815260040160405180910390fd5b60028101546001600160a01b03163314610a4357604051631a27eac360e11b815260040160405180910390fd5b600060068083015460ff1690811115610a5e57610a5e6124d2565b14158015610a855750600360068083015460ff1690811115610a8257610a826124d2565b14155b15610aa35760405163487e440960e01b815260040160405180910390fd5b60068101805460ff191660011790554260088201819055604051908152339083907f8b44dbaf15076234737ccfc50184ceb64225cdaee11ef9a35e45affb3748f355906020015b60405180910390a35050565b600080516020612ac6833981519152610b0e81611b8c565b6001600160a01b038216610b355760405163e6c4247b60e01b815260040160405180910390fd5b82600003610b565760405163162908e360e11b815260040160405180910390fd5b6001600160a01b038416610bde576000826001600160a01b03168460405160006040518083038185875af1925050503d8060008114610bb1576040519150601f19603f3d011682016040523d82523d6000602084013e610bb6565b606091505b5050905080610bd8576040516312171d8360e31b815260040160405180910390fd5b50610bf2565b610bf26001600160a01b0385168385611ddd565b50505050565b610c00611c1a565b610c08611c62565b60008181526003602052604090208054610c3557604051634d5c803960e11b815260040160405180910390fd5b600160068083015460ff1690811115610c5057610c506124d2565b14158015610c775750600360068083015460ff1690811115610c7457610c746124d2565b14155b15610c955760405163487e440960e01b815260040160405180910390fd5b600a81015460ff16610cba5760405163487e440960e01b815260040160405180910390fd5b60028101546001600160a01b03163314801590610cec5750610cea600080516020612aa683398151915233610ed8565b155b15610d0a57604051631a27eac360e11b815260040160405180910390fd5b60008281526004602052604081205490819003610d3a5760405163162908e360e11b815260040160405180910390fd5b60068201805460ff1916600490811790915542600880850191909155600085815260209290925260408220829055805491610d748361272a565b909155505060048201546001600160a01b0316610e075760018201546040516000916001600160a01b03169083908381818185875af1925050503d8060008114610dda576040519150601f19603f3d011682016040523d82523d6000602084013e610ddf565b606091505b5050905080610e01576040516312171d8360e31b815260040160405180910390fd5b50610e2c565b600482015460018301546001600160a01b0391821691610e2a9183911684611ddd565b505b60018201546004830154604080518481526001600160a01b03928316602082015242818301529051919092169185917f8186940ee0fbf20e72944be65ab31976f684e27e704e4d9d3e465266e8f6c2be9181900360600190a3604051428152339084907e3f2f2b3be6b2550346a6db5e609148d1113f09128692bd7234f1e7825cbc4290602001610928565b600080516020612ac6833981519152610ed081611b8c565b61093b611e0d565b6000918252602082815260408084206001600160a01b0393909316845291905290205460ff1690565b6001600160a01b0381166000908152600560209081526040918290208054835181840281018401909452808452606093928301828280156106d257602002820191906000526020600020908154815260200190600101908083116106be5750505050509050919050565b610f73611c1a565b60008381526003602052604090208054610fa057604051634d5c803960e11b815260040160405180910390fd5b60028101546001600160a01b03163314610fcd57604051631a27eac360e11b815260040160405180910390fd5b600060068083015460ff1690811115610fe857610fe86124d2565b1415801561100f5750600360068083015460ff169081111561100c5761100c6124d2565b14155b1561102d5760405163487e440960e01b815260040160405180910390fd5b60068101805460ff191660021790556009810161104b8385836127e1565b504260088201819055604051339186917fa1ff4f0ac3b2066087d70429e70b16ffa299844789a4bbf0d49da34f96d81f639161108a91889188916128a2565b60405180910390a350505050565b6110a0611c1a565b600081815260036020526040902080546110cd57604051634d5c803960e11b815260040160405180910390fd5b600160068083015460ff16908111156110e8576110e86124d2565b146111065760405163487e440960e01b815260040160405180910390fd5b60028101546001600160a01b031633148015906111385750611136600080516020612aa683398151915233610ed8565b155b1561115657604051631a27eac360e11b815260040160405180910390fd5b60068101805460ff1916600417905542600880830191909155805490600061117d8361272a565b9091555050604051428152339083907e3f2f2b3be6b2550346a6db5e609148d1113f09128692bd7234f1e7825cbc4290602001610aea565b6005602052816000526040600020818154811061072457600080fd5b6111d9611c1a565b6000818152600360205260409020805461120657604051634d5c803960e11b815260040160405180910390fd5b60018101546001600160a01b0316331461123357604051631a27eac360e11b815260040160405180910390fd5b600060068083015460ff169081111561124e5761124e6124d2565b1461126c5760405163487e440960e01b815260040160405180910390fd5b60068101805460ff191660051790554260088201819055604051908152339083907fba48a530032b13dfde60b7c42b66a66281d677ac75106dc0432898b683b9d79190602001610aea565b604080516101608101825260008082526020820181905291810182905260608082018390526080820183905260a0820183905260c0820183905260e08201839052610100820183905261012082015261014081019190915260008281526003602052604090205461133b57604051634d5c803960e11b815260040160405180910390fd5b6000828152600360208181526040928390208351610160810185528154815260018201546001600160a01b039081169382019390935260028201548316948101949094529182015460608401526004820154166080830152600581015460a083015260068082015460c084019160ff909116908111156113bd576113bd6124d2565b60068111156113ce576113ce6124d2565b815260200160078201548152602001600882015481526020016009820180546113f690612759565b80601f016020809104026020016040519081016040528092919081815260200182805461142290612759565b801561146f5780601f106114445761010080835404028352916020019161146f565b820191906000526020600020905b81548152906001019060200180831161145257829003601f168201915b5050509183525050600a919091015460ff16151560209091015292915050565b6000828152602081905260409020600101546114aa81611b8c565b6107038383611d26565b6114bc611c1a565b6114c4611c62565b600081815260036020526040902080546114f157604051634d5c803960e11b815260040160405180910390fd5b600260068083015460ff169081111561150c5761150c6124d2565b1461152a5760405163487e440960e01b815260040160405180910390fd5b600a81015460ff1661154f5760405163487e440960e01b815260040160405180910390fd5b60028101546001600160a01b03163314801590611581575061157f600080516020612aa683398151915233610ed8565b155b1561159f57604051631a27eac360e11b815260040160405180910390fd5b600082815260046020526040812054908190036115cf5760405163162908e360e11b815260040160405180910390fd5b6006828101805460ff1916909117905542600883015560008381526004602081905260408220919091558201546001600160a01b03166116855760028201546040516000916001600160a01b03169083908381818185875af1925050503d8060008114611658576040519150601f19603f3d011682016040523d82523d6000602084013e61165d565b606091505b505090508061167f576040516312171d8360e31b815260040160405180910390fd5b506116aa565b600482015460028301546001600160a01b03918216916116a89183911684611ddd565b505b60028201546004830154604080518481526001600160a01b039283166020820152429181019190915291169084907f8498c9f602a5c11a45da6b6d6baa7b3175060dce2af1060efc48eb762a4d0e0190606001610928565b60036020819052600091825260409091208054600182015460028301549383015460048401546005850154600686015460078701546008880154600989018054989a6001600160a01b039889169a90891699979890961696949560ff909416949293919261176f90612759565b80601f016020809104026020016040519081016040528092919081815260200182805461179b90612759565b80156117e85780601f106117bd576101008083540402835291602001916117e8565b820191906000526020600020905b8154815290600101906020018083116117cb57829003601f168201915b505050600a909301549192505060ff168b565b611803611c1a565b856118215760405163162908e360e11b815260040160405180910390fd5b6001600160a01b038516158061183e57506001600160a01b038416155b1561185c5760405163e6c4247b60e01b815260040160405180910390fd5b8260000361187d5760405163162908e360e11b815260040160405180910390fd5b8060000361189e57604051633d23e4d160e11b815260040160405180910390fd5b600086815260036020526040902054156118cb5760405163074bc93560e01b815260040160405180910390fd5b6118e3600080516020612aa683398151915233610ed8565b1580156118f95750336001600160a01b03861614155b1561191757604051631a27eac360e11b815260040160405180910390fd5b6000604051806101600160405280888152602001876001600160a01b03168152602001866001600160a01b03168152602001858152602001846001600160a01b0316815260200183815260200160006006811115611977576119776124d2565b815242602080830182905260408084019290925281518082018352600080825260608086019290925260809485018190528c81526003808452908490208651815592860151600184810180546001600160a01b039384166001600160a01b031991821617909155958801516002860180549184169188169190911790559287015191840191909155938501516004830180549190951693169290921790925560a0830151600583015560c08301516006808401805495965086959293909260ff1916918490811115611a4b57611a4b6124d2565b021790555060e0820151600782015561010082015160088201556101208201516009820190611a7a90826128db565b506101409190910151600a909101805460ff19169115159190911790556001600160a01b038681166000908152600560209081526040808320805460018181018355918552838520018c9055938916835260068252822080549384018155825281209091018890556007805491611af08361272a565b9091555050604080518581526001600160a01b0385811660208301529181018490524260608201528187169188169089907fd0628792e8a7baa809a744b03b70a01f4d3edc96da0533559b87b8d095d8089f9060800160405180910390a450505050505050565b60006001600160e01b03198216637965db0b60e01b148061066c57506301ffc9a760e01b6001600160e01b031983161461066c565b61093b8133611e4a565b611ba08282610ed8565b6109bd576000828152602081815260408083206001600160a01b03851684529091529020805460ff19166001179055611bd63390565b6001600160a01b0316816001600160a01b0316837f2f8788117e7eff1d82e926ec794901d17c78024a50270940304540a733656f0d60405160405180910390a45050565b60025460ff1615611c605760405162461bcd60e51b815260206004820152601060248201526f14185d5cd8589b194e881c185d5cd95960821b60448201526064016109aa565b565b600260015403611cb45760405162461bcd60e51b815260206004820152601f60248201527f5265656e7472616e637947756172643a207265656e7472616e742063616c6c0060448201526064016109aa565b6002600155565b6040516001600160a01b0380851660248301528316604482015260648101829052610bf29085906323b872dd60e01b906084015b60408051601f198184030181529190526020810180516001600160e01b03166001600160e01b031990931692909217909152611ea3565b611d308282610ed8565b156109bd576000828152602081815260408083206001600160a01b0385168085529252808320805460ff1916905551339285917ff6391f5c32d9c69d2a47ea670b442974b53935d1edc7fd64eb21e047a839171b9190a45050565b611d93611f78565b6002805460ff191690557f5db9ee0a495bf2e6ff9c91a7834c1ba4fdd244a5e8aa4e537bd38aeae4b073aa335b6040516001600160a01b03909116815260200160405180910390a1565b6040516001600160a01b03831660248201526044810182905261070390849063a9059cbb60e01b90606401611cef565b611e15611c1a565b6002805460ff191660011790557f62e78cea01bee320cd4e420270b5ea74000d11b0c9f74754ebdbfc544b05a258611dc03390565b611e548282610ed8565b6109bd57611e6181611fc1565b611e6c836020611fd3565b604051602001611e7d92919061299b565b60408051601f198184030181529082905262461bcd60e51b82526109aa91600401612a10565b6000611ef8826040518060400160405280602081526020017f5361666545524332303a206c6f772d6c6576656c2063616c6c206661696c6564815250856001600160a01b03166121769092919063ffffffff16565b9050805160001480611f19575080806020019051810190611f199190612a23565b6107035760405162461bcd60e51b815260206004820152602a60248201527f5361666545524332303a204552433230206f7065726174696f6e20646964206e6044820152691bdd081cdd58d8d9595960b21b60648201526084016109aa565b60025460ff16611c605760405162461bcd60e51b815260206004820152601460248201527314185d5cd8589b194e881b9bdd081c185d5cd95960621b60448201526064016109aa565b606061066c6001600160a01b03831660145b60606000611fe2836002612a45565b611fed906002612717565b67ffffffffffffffff81111561200557612005612743565b6040519080825280601f01601f19166020018201604052801561202f576020820181803683370190505b509050600360fc1b8160008151811061204a5761204a612a5c565b60200101906001600160f81b031916908160001a905350600f60fb1b8160018151811061207957612079612a5c565b60200101906001600160f81b031916908160001a905350600061209d846002612a45565b6120a8906001612717565b90505b6001811115612120576f181899199a1a9b1b9c1cb0b131b232b360811b85600f16601081106120dc576120dc612a5c565b1a60f81b8282815181106120f2576120f2612a5c565b60200101906001600160f81b031916908160001a90535060049490941c9361211981612a72565b90506120ab565b50831561216f5760405162461bcd60e51b815260206004820181905260248201527f537472696e67733a20686578206c656e67746820696e73756666696369656e7460448201526064016109aa565b9392505050565b6060612185848460008561218d565b949350505050565b6060824710156121ee5760405162461bcd60e51b815260206004820152602660248201527f416464726573733a20696e73756666696369656e742062616c616e636520666f6044820152651c8818d85b1b60d21b60648201526084016109aa565b600080866001600160a01b0316858760405161220a9190612a89565b60006040518083038185875af1925050503d8060008114612247576040519150601f19603f3d011682016040523d82523d6000602084013e61224c565b606091505b509150915061225d87838387612268565b979650505050505050565b606083156122d75782516000036122d0576001600160a01b0385163b6122d05760405162461bcd60e51b815260206004820152601d60248201527f416464726573733a2063616c6c20746f206e6f6e2d636f6e747261637400000060448201526064016109aa565b5081612185565b61218583838151156122ec5781518083602001fd5b8060405162461bcd60e51b81526004016109aa9190612a10565b60006020828403121561231857600080fd5b81356001600160e01b03198116811461216f57600080fd5b60006020828403121561234257600080fd5b5035919050565b80356001600160a01b038116811461236057600080fd5b919050565b60006020828403121561237757600080fd5b61216f82612349565b6020808252825182820181905260009190848201906040850190845b818110156123b85783518352928401929184019160010161239c565b50909695505050505050565b600080604083850312156123d757600080fd5b823591506123e760208401612349565b90509250929050565b6000806040838503121561240357600080fd5b61240c83612349565b946020939093013593505050565b60008060006060848603121561242f57600080fd5b61243884612349565b92506020840135915061244d60408501612349565b90509250925092565b60008060006040848603121561246b57600080fd5b83359250602084013567ffffffffffffffff8082111561248a57600080fd5b818601915086601f83011261249e57600080fd5b8135818111156124ad57600080fd5b8760208285010111156124bf57600080fd5b6020830194508093505050509250925092565b634e487b7160e01b600052602160045260246000fd5b6007811061250657634e487b7160e01b600052602160045260246000fd5b9052565b60005b8381101561252557818101518382015260200161250d565b50506000910152565b6000815180845261254681602086016020860161250a565b601f01601f19169290920160200192915050565b60208152815160208201526000602083015161258160408401826001600160a01b03169052565b5060408301516001600160a01b0381166060840152506060830151608083015260808301516125bb60a08401826001600160a01b03169052565b5060a083015160c083015260c08301516125d860e08401826124e8565b5060e0830151610100838101919091528301516101208084019190915283015161016061014080850182905261261261018086018461252e565b95015115159301929092525090919050565b8b81526001600160a01b038b811660208301528a81166040830152606082018a90528816608082015260a08101879052600061016061266660c08401896124e8565b8660e084015285610100840152806101208401526126868184018661252e565b9150508215156101408301529c9b505050505050505050505050565b60008060008060008060c087890312156126bb57600080fd5b863595506126cb60208801612349565b94506126d960408801612349565b9350606087013592506126ee60808801612349565b915060a087013590509295509295509295565b634e487b7160e01b600052601160045260246000fd5b8082018082111561066c5761066c612701565b60006001820161273c5761273c612701565b5060010190565b634e487b7160e01b600052604160045260246000fd5b600181811c9082168061276d57607f821691505b60208210810361278d57634e487b7160e01b600052602260045260246000fd5b50919050565b601f82111561070357600081815260208120601f850160051c810160208610156127ba5750805b601f850160051c820191505b818110156127d9578281556001016127c6565b505050505050565b67ffffffffffffffff8311156127f9576127f9612743565b61280d836128078354612759565b83612793565b6000601f84116001811461284157600085156128295750838201355b600019600387901b1c1916600186901b17835561289b565b600083815260209020601f19861690835b828110156128725786850135825560209485019460019092019101612852565b508682101561288f5760001960f88860031b161c19848701351681555b505060018560011b0183555b5050505050565b604081528260408201528284606083013760006060848301015260006060601f19601f8601168301019050826020830152949350505050565b815167ffffffffffffffff8111156128f5576128f5612743565b612909816129038454612759565b84612793565b602080601f83116001811461293e57600084156129265750858301515b600019600386901b1c1916600185901b1785556127d9565b600085815260208120601f198616915b8281101561296d5788860151825594840194600190910190840161294e565b508582101561298b5787850151600019600388901b60f8161c191681555b5050505050600190811b01905550565b7f416363657373436f6e74726f6c3a206163636f756e74200000000000000000008152600083516129d381601785016020880161250a565b7001034b99036b4b9b9b4b733903937b6329607d1b6017918401918201528351612a0481602884016020880161250a565b01602801949350505050565b60208152600061216f602083018461252e565b600060208284031215612a3557600080fd5b8151801515811461216f57600080fd5b808202811582820484141761066c5761066c612701565b634e487b7160e01b600052603260045260246000fd5b600081612a8157612a81612701565b506000190190565b60008251612a9b81846020870161250a565b919091019291505056fe25cf2b509f2a7f322675b2a5322b182f44ad2c03ac941a0af17c9b178f5d5d5fa49807205ce4d355092ef5a8a18f56e8913cf4a201fbe287825b095693c21775a2646970667358221220c81169a306457cfaa529d31af480969ff37a057296b4c2e407c6668b5992a57864736f6c63430008130033",
  "linkReferences": {},
  "deployedLinkReferences": {}
}